:100000000C943D000C9484000C945A000C945A00FB
:100010000C945A000C945A000C945A000C945A00F8
:100020000C945A000C945A000C945A000C94CA0672
:100030000C945A000C94D9000C945A000C945A0059
:100040000C945A000C945A000C945A000C945A00C8
:100050000C945A000C945A000C945A000C945A00B8
:100060000C945A000C945A000403A003A003FC0251
:10007000F40207032E0355037B0311241FBECFEFA9
:10008000D8E0DEBFCDBF11E0A0E0B1E0E4ECF8E1E4
:1000900002C005900D92A434B107D9F721E0A4E481
:1000A000B1E001C01D92A737B207E1F70E94A50396
:1000B0000C94600C0C94000081E08093750145B1B4
:1000C000E9E3F1E081E090E09C01008002C0220FB2
:1000D000331F0A94E2F7242B25B925E32A95F1F77B
:1000E000000025B1008002C0880F991F0A94E2F732
:1000F0008095822385B9809174018823E1F38091F2
:1001000071019091720108951F920F920FB60F9294
:1001100011248F939F93EF93FF938091750181300A
:10012000F1F48091730181111AC083B190E00090C5
:10013000370102C0959587950A94E2F780FF0FC0BA
:10014000E1E8F0E080818260808310928500109267
:10015000840081E0809373011092750121C0809129
:1001600073018130E9F483B190E00090370102C05F
:10017000959587950A94E2F780FD12C0E1E8F0E0DA
:1001800080818D7F80838091840090918500909301
:100190007201809371011092730181E08093740168
:1001A000FF91EF919F918F910F900FBE0F901F9035
:1001B00018951F920F920FB60F9211248F939F9351
:1001C000EF93FF93E1E8F0E080818D7F8083809161
:1001D000840090918500909372018093710181E079
:1001E0008093740110927301FF91EF919F918F9111
:1001F0000F900FBE0F901F9018958334E9F184344F
:1002000021F0813409F050C037C068307105DCF04E
:100210006850710941110CC024B181E090E002C026
:10022000880F991F6A95E2F78095822384B9089513
:1002300024B181E090E002C0880F991F6A95E2F72F
:10024000822B84B9089541110CC02AB181E090E05D
:1002500002C0880F991F6A95E2F7809582238AB9B8
:1002600008952AB181E090E002C0880F991F6A9535
:10027000E2F7822B8AB9089541110CC027B181E0C1
:1002800090E002C0880F991F6A95E2F7809582235B
:1002900087B9089527B181E090E002C0880F991FC7
:1002A0006A95E2F7822B87B90895609139017091C0
:1002B0003A0141E084E40E94FD00EFE6F0E0808135
:1002C00081608083109285001092840081E0809389
:1002D00069008DBB08958334E9F1843421F08134C1
:1002E00009F050C037C068307105DCF06850710902
:1002F00041110CC025B181E090E002C0880F991F28
:100300006A95E2F78095822385B9089525B181E049
:1003100090E002C0880F991F6A95E2F7822B85B999
:10032000089541110CC02BB181E090E002C0880F0C
:10033000991F6A95E2F7809582238BB908952BB1B6
:1003400081E090E002C0880F991F6A95E2F7822B46
:100350008BB9089541110CC028B181E090E002C032
:10036000880F991F6A95E2F78095822388B90895CE
:1003700028B181E090E002C0880F991F6A95E2F7EA
:10038000822B88B908951092C50087E68093C40037
:1003900086E08093C20088E18093C1000895E0EC7C
:1003A000F0E080818823ECF78091C6000895E0ECAE
:1003B000F0E0908195FFFDCF8093C6000895CF9324
:1003C000DF93EC018881882331F021960E94D701C8
:1003D00089918111FBCF8AE00E94D701DF91CF91F3
:1003E00008950F931F93CF93DF93CDB7DEB72C976C
:1003F0000FB6F894DEBF0FBECDBF83E00E94D701D9
:10040000809145011F928F9381E491E09F938F9398
:100410008E010F5F1F4F1F930F930E947609C80133
:100420000E94DF010F900F900F900F900F900F9090
:100430002C960FB6F894DEBF0FBECDBFDF91CF91E3
:100440001F910F91089580914501813019F4109208
:10045000450103C081E0809345010E94F1010895A8
:100460000F931F93CF93DF93CDB7DEB72C970FB6C3
:10047000F894DEBF0FBECDBF84E00E94D70180910B
:1004800046011F928F9381E491E09F938F938E0199
:100490000F5F1F4F1F930F930E947609C8010E94A0
:1004A000DF010F900F900F900F900F900F902C96F0
:1004B0000FB6F894DEBF0FBECDBFDF91CF911F9175
:1004C0000F9108951092760182E0809346010E9478
:1004D000300260913D0170913E0141E084E40E9450
:1004E0006B0160913F017091400141E084E40E9402
:1004F0006B0160913B0170913C0140E084E40E94FB
:100500006B0181E090E0A0E0B0E080934701909320
:100510004801A0934901B0934A01209119013091FB
:100520001A0140911B0150911C01A4E6B0E00E9409
:100530005C0960934F017093500180935101909337
:100540005201089581E08093760182E08093460114
:100550000E94300260913D0170913E0141E084E4CF
:100560000E946B0160913B0170913C0141E084E489
:100570000E946B0160913F017091400140E084E472
:100580000E946B0181E090E0A0E0B0E08093470121
:1005900090934801A0934901B0934A012091190119
:1005A00030911A0140911B0150911C01A4E6B0E06A
:1005B0000E945C0960934F01709350018093510138
:1005C000909352010895CF92DF92EF92FF920E9492
:1005D000CF0190E0FC013297E930F10508F0B0C09E
:1005E000EC5CFF4F0C94560981E0809345010E941A
:1005F000F1010E946202A4C081E0809345010E9443
:10060000F1010E94A2029CC00E94230299C0C090E6
:100610003101D0903201E0903301F090340120E0BC
:1006200030E04AE754E4C701B6010E942D08882350
:100630000CF086C020E030E040E050E4C701B60195
:100640000E94C1076093310170933201809333019E
:100650009093340187E00E94D70172C0C0903101AD
:10066000D0903201E0903301F090340120E030E08E
:1006700040E050E4C701B6010E94E40818160CF0EF
:100680005FC020E030E040E050E4C701B6010E94C6
:10069000C0076093310170933201809333019093CE
:1006A000340188E00E94D7014BC0C0902D01D0904A
:1006B0002E01E0902F01F090300120E030E04FE774
:1006C00054E4C701B6010E942D088823CCF520E030
:1006D00030E048EC51E4C701B6010E94C1076093C5
:1006E0002D0170932E0180932F019093300189E0AA
:1006F0000E94D70125C0C0902D01D0902E01E0901E
:100700002F01F090300120E030E048EC51E4C701C7
:10071000B6010E94E40818169CF420E030E048EC92
:1007200051E4C701B6010E94C00760932D01709388
:100730002E0180932F01909330018AE00E94D7010F
:10074000FF90EF90DF90CF90089560913B01709102
:100750003C0141E084E40E94FD0060913D01709104
:100760003E0141E084E40E94FD0060913F017091F0
:10077000400141E084E40E94FD0060916F017091AE
:10078000700140E081E40E94FD00609135017091AC
:10079000360140E081E40E94FD000E94C3010E94F6
:1007A0005501ECE7F0E0808180648083EAE7F0E0C7
:1007B0008081876880838CE08093810082E08093D1
:1007C0006F0081E792E0909389008093880078948D
:1007D000809146018093760160913D0170913E01C8
:1007E00040E084E40E946B0160913F017091400100
:1007F00041E084E40E946B0160913B0170913C01F7
:1008000040E084E40E946B010E94E302FDCF8F92DE
:100810009F92AF92BF92CF92DF92EF92FF92CF93CF
:10082000DF9380914501813009F471C0C091460188
:10083000C23009F46CC060916B0170916C0180E072
:1008400090E00E9432086B017C0180902D01909015
:100850002E01A0902F01B0903001A50194010E94BB
:10086000E4088823B4F020913101309132014091A5
:10087000330150913401609167017091680180915A
:10088000690190916A010E942D0818160CF5D1E0BB
:1008900001C0DC2FA5019401C701B6010E942D08FB
:1008A0008823C4F02091310130913201409133010D
:1008B00050913401609167017091680180916901E4
:1008C00090916A010E942D0818162CF0D0E003C008
:1008D000D0E001C0D0E0DC1731F0809144018F5F9F
:1008E0008093440102C01092440190914401809190
:1008F0000001981760F0DD2319F0D13021F005C018
:100900000E94620202C00E94A20210924401DF9182
:10091000CF91FF90EF90DF90CF90BF90AF909F90DE
:100920008F90089580917601809346010E94300255
:1009300060913D0170913E0140E084E40E946B01B2
:1009400008950F931F93CF93DF93CDB7DEB72C9706
:100950000FB6F894DEBF0FBECDBF80E00E94D70176
:1009600080916E018F9380916D018F9381E491E06E
:100970009F938F938E010F5F1F4F1F930F930E94C2
:100980007609C8010E94DF010F900F900F900F9021
:100990000F900F902C960FB6F894DEBF0FBECDBF10
:1009A000DF91CF911F910F9108950F931F93CF93D4
:1009B000DF93CDB7DEB72C970FB6F894DEBF0FBE2E
:1009C000CDBF81E00E94D70180916C018F9380910F
:1009D0006B018F9381E491E09F938F938E010F5F62
:1009E0001F4F1F930F930E947609C8010E94DF01D9
:1009F0000F900F900F900F900F900F902C960FB6B6
:100A0000F894DEBF0FBECDBFDF91CF911F910F9144
:100A100008950F931F93CF93DF93CDB7DEB72C9735
:100A20000FB6F894DEBF0FBECDBF8BE00E94D7019A
:100A300080917101909172019F938F9381E491E075
:100A40009F938F938E010F5F1F4F1F930F930E94F1
:100A50007609C8010E94DF010F900F900F900F9050
:100A60000F900F902C960FB6F894DEBF0FBECDBF3F
:100A7000DF91CF911F910F910895877080648093CB
:100A80007C00EAE7F0E0808180648083808186FDDD
:100A9000FDCF809178002091790090E0922B08950D
:100AA000CF93DF93C5E3D1E088810E943D05888123
:100AB0000E943D0590936E0180936D01BC0180E022
:100AC00090E00E94320820E030E040EA50E40E94CA
:100AD000E90820E030E040E85AE30E94E90820E01D
:100AE00030E040E05FE30E94C00720E030E048ECE7
:100AF00052E40E94E9086093670170936801809353
:100B0000690190936A01DF91CF910895CF93DF93AC
:100B1000CFE6D1E088810E943D0588810E943D0595
:100B200090936C0180936B01BC0180E090E00E9487
:100B3000320820E030E0A9010E94C1076093630100
:100B4000709364018093650190936601DF91CF916A
:100B500008958091110190911201A0911301B0911B
:100B60001401892B8A2B8B2B11F180915F019091BD
:100B70006001A0916101B0916201892B8A2B8B2BBE
:100B8000B1F40E9450052091290130912A01409131
:100B90002B0150912C01A4E6B0E00E945C09609307
:100BA0005F01709360018093610190936201809175
:100BB0000D0190910E01A0910F01B0911001892BB0
:100BC0008A2B8B2B11F180915B0190915C01A0919C
:100BD0005D01B0915E01892B8A2B8B2BB1F40E94B1
:100BE00086052091250130912601409127015091E1
:100BF0002801A4E6B0E00E945C0960935B01709359
:100C00005C0180935D0190935E0180910901909158
:100C10000A01A0910B01B0910C01892B8A2B8B2B1F
:100C200011F18091570190915801A0915901B09113
:100C30005A01892B8A2B8B2BB1F40E945C002091E6
:100C40002101309122014091230150912401A4E619
:100C5000B0E00E945C096093570170935801809343
:100C6000590190935A018091050190910601A0913C
:100C70000701B0910801892B8A2B8B2B31F18091D0
:100C8000530190915401A0915501B0915601892BC7
:100C90008A2B8B2BD1F40E94A1040E94D5040E94C0
:100CA000090520911D0130911E0140911F015091B5
:100CB0002001A4E6B0E00E945C09609353017093A8
:100CC00054018093550190935601809101019091B8
:100CD0000201A0910301B0910401892B8A2B8B2B77
:100CE00011F180914B0190914C01A0914D01B09177
:100CF0004E01892B8A2B8B2BB1F40E940704209183
:100D00001501309116014091170150911801A4E688
:100D1000B0E00E945C0960934B0170934C0180939A
:100D20004D0190934E018091470190914801A0910F
:100D30004901B0914A01892B8A2B8B2B51F180916B
:100D40004F0190915001A0915101B0915201892B16
:100D50008A2B8B2BF1F40E9492041092470110927F
:100D600048011092490110924A01209119013091D5
:100D70001A0140911B0150911C01A4E6B0E00E94B1
:100D80005C0960934F0170935001809351019093DF
:100D9000520108951F920F920FB60F9211242F93B4
:100DA0003F934F935F936F937F938F939F93AF93F3
:100DB000BF93EF93FF938091110190911201A09145
:100DC0001301B0911401892B8A2B8B2BB9F08091E0
:100DD0005F0190916001A0916101B0916201009763
:100DE000A105B10559F00197A109B10980935F01EF
:100DF00090936001A0936101B093620180910D0115
:100E000090910E01A0910F01B0911001892B8A2BB6
:100E10008B2BB9F080915B0190915C01A0915D01F9
:100E2000B0915E010097A105B10559F00197A109A4
:100E3000B10980935B0190935C01A0935D01B09335
:100E40005E018091090190910A01A0910B01B0917E
:100E50000C01892B8A2B8B2BB9F080915701909133
:100E60005801A0915901B0915A010097A105B1050F
:100E700059F00197A109B109809357019093580146
:100E8000A0935901B0935A018091050190910601F8
:100E9000A0910701B0910801892B8A2B8B2BB9F007
:100EA0008091530190915401A0915501B091560148
:100EB0000097A105B10559F00197A109B1098093E7
:100EC000530190935401A0935501B0935601809122
:100ED000010190910201A0910301B0910401892BBD
:100EE0008A2B8B2BB9F080914B0190914C01A091F2
:100EF0004D01B0914E010097A105B10559F0019740
:100F0000A109B10980934B0190934C01A0934D012D
:100F1000B0934E018091470190914801A091490101
:100F2000B0914A01892B8A2B8B2BB9F080914F010C
:100F300090915001A0915101B09152010097A105EB
:100F4000B10559F00197A109B10980934F01909320
:100F50005001A0935101B09352010E94A905FF9145
:100F6000EF91BF91AF919F918F917F916F915F9121
:100F70004F913F912F910F900FBE0F901F9018959A
:100F80005058BB27AA270E94D8070C94AA080E9491
:100F90009C0838F00E94A30820F039F49F3F19F410
:100FA00026F40C9499080EF4E095E7FB0C94930852
:100FB000E92F0E94BB0858F3BA176207730784072A
:100FC000950720F079F4A6F50C94DD080EF4E09571
:100FD0000B2EBA2FA02D0B01B90190010C01CA01F3
:100FE000A0011124FF27591B99F0593F50F4503E9E
:100FF00068F11A16F040A22F232F342F4427585F90
:10100000F3CF469537952795A795F0405395C9F7A7
:101010007EF41F16BA0B620B730B840BBAF091505F
:10102000A1F0FF0FBB1F661F771F881FC2F70EC0FE
:10103000BA0F621F731F841F48F4879577956795D1
:10104000B795F7959E3F08F0B0CF9395880F08F0BD
:101050009927EE0F9795879508950E946F0808F4D9
:1010600081E00895E89409C097FB3EF4909580953F
:10107000709561957F4F8F4F9F4F9923A9F0F92F5E
:1010800096E9BB279395F695879577956795B795DC
:10109000F111F8CFFAF4BB0F11F460FF1BC06F5FC2
:1010A0007F4F8F4F9F4F16C0882311F096E911C0D4
:1010B000772321F09EE8872F762F05C0662371F0F5
:1010C00096E8862F70E060E02AF09A95660F771F09
:1010D000881FDAF7880F9695879597F90895990FE5
:1010E0000008550FAA0BE0E8FEEF16161706E807F2
:1010F000F907C0F012161306E407F50798F0621B13
:10110000730B840B950B39F40A2661F0232B242BE7
:10111000252B21F408950A2609F4A140A6958FEF06
:10112000811D811D089597F99F6780E870E060E058
:1011300008959FEF80EC089500240A941616170670
:1011400018060906089500240A94121613061406B8
:1011500005060895092E0394000C11F4882352F01B
:10116000BB0F40F4BF2B11F460FF04C06F5F7F4FD3
:101170008F4F9F4F089557FD9058440F551F59F0BA
:101180005F3F71F04795880F97FB991F61F09F3F74
:1011900079F087950895121613061406551FF2CF9D
:1011A0004695F1DF08C0161617061806991FF1CFED
:1011B00086957105610508940895E894BB27662714
:1011C0007727CB0197F908950E946F0808F48FEFF5
:1011D00008950E94FC080C94AA080E949C0838F00C
:1011E0000E94A30820F0952311F00C9493080C940E
:1011F000990811240C94DE080E94BB0870F3959F97
:10120000C1F3950F50E0551F629FF001729FBB27FD
:10121000F00DB11D639FAA27F00DB11DAA1F649F99
:101220006627B00DA11D661F829F2227B00DA11D4C
:10123000621F739FB00DA11D621F839FA00D611DD2
:10124000221F749F3327A00D611D231F849F600DF3
:10125000211D822F762F6A2F11249F5750409AF01C
:10126000F1F088234AF0EE0FFF1FBB1F661F771FA8
:10127000881F91505040A9F79E3F510580F00C9473
:1012800093080C94DE085F3FE4F3983ED4F3869510
:1012900077956795B795F795E7959F5FC1F7FE2B13
:1012A000880F911D9695879597F90895EE0FFF1F6A
:1012B0000590F491E02D09940E946709A59F900D77
:1012C000B49F900DA49F800D911D11240895A29F9D
:1012D000B001B39FC001A39F700D811D1124911D0A
:1012E000B29F700D811D1124911D0895AEE0B0E0F4
:1012F000ECE7F9E00C94370C0D891E8986E08C83AD
:101300001A8309838FEF9FE79E838D83AE01475E2B
:101310005F4F6F89788DCE0101960E949809EF8109
:10132000F885E00FF11F10822E96E4E00C94530C28
:10133000ABE0B0E0EEE9F9E00C94290C6C017B0124
:101340008A01FC0117821682838181FFCCC1CE0104
:1013500001963C01F6019381F70193FD859193FF7E
:1013600081917F01882309F4BAC1853239F493FD54
:10137000859193FF81917F01853229F4B60190E038
:101380000E948F0BE7CF912C212C312CFFE1F3151C
:10139000D8F08B3279F038F4803279F08332A1F4CE
:1013A000232D20611DC08D3261F0803369F4232D1F
:1013B000216016C0832D8260382EE32DE4603E2E1E
:1013C0002AC0F32DF8601DC037FC2DC020ED280F7A
:1013D0002A3040F08E32B9F436FC81C1232D2064CE
:1013E000322E19C036FE06C08AE0989E200D1124C8
:1013F000922E11C0EAE02E9E200D1124222EF32DF4
:10140000F0623F2E08C08C3621F4832D8068382E80
:1014100002C0883641F4F70193FD859193FF8191D5
:101420007F018111B3CF982F9F7D9554933028F47D
:101430000C5F1F4F9FE399830DC0833631F08337D4
:1014400071F0833509F059C021C0F801808189838A
:101450000E5F1F4F88248394912C530113C02801E1
:10146000F2E04F0E511CF801A080B18036FE03C09F
:10147000692D70E002C06FEF7FEFC5010E94840B01
:101480004C018201F32DFF773F2E16C0280122E088
:10149000420E511CF801A080B18036FE03C0692DB8
:1014A00070E002C06FEF7FEFC5010E94790B4C0125
:1014B000F32DF0683F2E820133FC1BC0822D90E09B
:1014C00088169906B0F4B60180E290E00E948F0B76
:1014D0002A94F4CFF50137FC859137FE81915F01A5
:1014E000B60190E00E948F0B21102A9421E0821A0D
:1014F00091088114910471F7E8C0843611F089369F
:1015000041F5F80137FE07C06081718182819381C6
:101510000C5F1F4F08C060817181072E000C880B83
:10152000990B0E5F1F4FF32DFF763F2E97FF09C0DB
:1015300090958095709561957F4F8F4F9F4FF06884
:101540003F2E2AE030E0A3010E94CB0B882E8618A4
:1015500045C0853731F4232D2F7EB22E2AE030E0AE
:1015600025C0932D997FB92E8F36C1F018F4883598
:1015700079F0B5C0803719F0883721F0B0C0E92F75
:10158000E061BE2EB4FE0DC0FB2DF460BF2E09C07D
:1015900034FE0AC0292F2660B22E06C028E030E0B3
:1015A00005C020E130E002C020E132E0F801B7FEE2
:1015B00007C060817181828193810C5F1F4F06C0DB
:1015C0006081718180E090E00E5F1F4FA3010E9457
:1015D000CB0B882E8618FB2DFF773F2E36FE0DC0D5
:1015E000232D2E7FA22E891458F434FE0BC032FC1A
:1015F00009C0832D8E7EA82E05C0B82CA32C03C055
:10160000B82C01C0B92CA4FE0FC0FE01E80DF11DDD
:101610008081803321F49A2D997EA92E09C0A2FEE3
:1016200006C0B394B39404C08A2D867809F0B394AD
:10163000A3FC11C0A0FE06C0B21488F4280C922CA2
:101640009B180EC0B21460F4B60180E290E00E94D4
:101650008F0BB394F7CFB21418F42B1802C0982C48
:10166000212CA4FE10C0B60180E390E00E948F0BF5
:10167000A2FE17C0A1FC03C088E790E002C088E585
:1016800090E0B6010CC08A2D867859F0A1FE02C008
:101690008BE201C080E2A7FC8DE2B60190E00E94DF
:1016A0008F0B891438F4B60180E390E00E948F0B11
:1016B0009A94F7CF8A94F301E80DF11D8081B60169
:1016C00090E00E948F0B8110F5CF222009F442CECA
:1016D000B60180E290E00E948F0B2A94F6CFF601CB
:1016E0008681978102C08FEF9FEF2B96E2E10C94E9
:1016F000450CFC010590615070400110D8F78095B1
:1017000090958E0F9F1F0895FC01615070400190CD
:101710000110D8F7809590958E0F9F1F08950F9315
:101720001F93CF93DF93FB01238121FD03C08FEF34
:101730009FEF2CC022FF16C046815781248135813E
:101740004217530744F4A081B1819D012F5F3F4FA1
:10175000318320838C93268137812F5F3F4F3783DE
:10176000268314C08B01EC01FB010084F185E02D80
:101770000995892BE1F6D80116968D919C911797C2
:10178000019617969C938E931697CE01DF91CF9179
:101790001F910F910895FA01AA27283051F12031A5
:1017A00081F1E8946F936E7F6E5F7F4F8F4F9F4FF5
:1017B000AF4FB1E03ED0B4E03CD0670F781F891F37
:1017C0009A1FA11D680F791F8A1F911DA11D6A0F05
:1017D000711D811D911DA11D20D009F468943F91B8
:1017E0002AE0269F11243019305D3193DEF6CF01B7
:1017F0000895462F4770405D4193B3E00FD0C9F77D
:10180000F6CF462F4F70405D4A3318F0495D31FDE9
:101810004052419302D0A9F7EACFB4E0A69597953C
:10182000879577956795BA95C9F700976105710512
:1018300008959B01AC010A2E06945795479537955C
:101840002795BA95C9F7620F731F841F951FA01DB6
:1018500008952F923F924F925F926F927F928F9254
:101860009F92AF92BF92CF92DF92EF92FF920F932F
:101870001F93CF93DF93CDB7DEB7CA1BDB0B0FB639
:10188000F894DEBF0FBECDBF09942A8839884888F6
:101890005F846E847D848C849B84AA84B984C8848C
:1018A000DF80EE80FD800C811B81AA81B981CE0F83
:1018B000D11D0FB6F894DEBF0FBECDBFED01089568
:0418C000F894FFCFCA
:1018C400020100000001000000010000000100000E
:1018D40000010000000500000005000000050000F4
:1018E400000500000005000000050000000000489D
:1018F400440000704101000C000B000A00090008BC
:041904000025640056
:00000001FF
